S01C0000447265616D636173744A6F79737469636B4849442E737265634F
S113000093C10000AEC10000ACC10000AAC1000051
S1130010A8C10000A6C10000A4C10000A2C1000044
S1130020A0C100009EC100000C94D0119AC1000030
S113003098C1000096C1000094C1000092C1000064
S113004090C100008EC100008CC100008AC1000074
S113005088C1000086C1000084C1000082C1000084
S113006080C100007EC100007CC100007AC1000094
S113007078C1000076C1000074C1000072C10000A4
S113008070C100006EC100006CC100006AC10000B4
S113009068C1000066C1000064C1000062C10000C4
S11300A060C100005EC100005CC100002A0344007E
S11300B07200650061006D006300610073007400EC
S11300C0200043006F006E00740072006F006C002B
S11300D06C0065007200000030035300770061007B
S11300E06C006C006F0077007400610069006C00A4
S11300F0200045006C0065006300740072006F000E
S11301006E0069006300730000000403090409021F
S11301102200010100C032090400000103000000B4
S1130120092111010001225500070581030800057A
S11301301201100100000008A30C200401000102B8
S1130140000105010904A1010901A10009300931D7
S113015009391681FF267F0036FFFF46010095030B
S113016075088102C00502A10009C509BB1681FFFB
S1130170267F0036FFFF460100750895028102C004
S11301800509190129051500250175019505810247
S1130190750395018101C000000004000000000007
S11301A00000000000001E0000000000130000001A
S11301B0000009800000000005FC000000000602A9
S11301C0000000000501380000000534E8000000CC
S11301D005126800000005092C0000000508B400A1
S11301E000000524B500000002A2BD00000002FFCB
S11301F0E640000002807B50000002808D900000E9
S113020002BF1AA00000050025400000050046E0DA
S11302100000053F89A000000A0119F000000A024D
S113022029A800000A04692800000AF8A91400009B
S11302300A092A1400000A122A1000000A242A10AB
S113024000000AC82C0000000A102C0000000BF06B
S11302502C0000000FE01800000000000000000067
S11302600000040000000000000000000000000086
S1130270000000000001000000000000C0000000B9
S11302800000600000000000F80000000001FC0015
S1130290000000063E00000000007E000000000197
S11302A0FE0000000003C6000000000183000000FF
S11302B0000181800000000101C00000000181C034
S11302C0000000018FE000000001C7E00000000012
S11302D083E00000000041E00000000003E00000B3
S11302E000000FE0000000000FE0000000000FE03D
S11302F00000000003E00000000001E00000000036
S113030001C00000000001C0000000000300000064
S113031000000E00000000000800000000000000C3
S1130320000000000000000011241FBECFEFDAE03F
S1130330DEBFCDBF11E0A0E0B1E0E8E8F8E202C022
S113034005900D92A031B107D9F723E0A0E1B1E007
S113035001C01D92A43BB207E1F70E94C60B0C94A6
S113036042144ECE292F332723303105C9F038F4F7
S11303702130310559F02230310569F035C0213280
S1130380310541F12232310551F12EC082E190E074
S113039020E331E032C082E290E02EE031E02DC073
S11303A099278130910551F018F0029769F021C026
S11303B0EAE0F1E0849190E09F011FC0E8EDF0E0F5
S11303C0849190E09F0119C0ECEAF0E0849190E000
S11303D09F0113C089E090E020E231E00EC085E582
S11303E090E022E431E009C080E090E020E030E0D9
S11303F004C080E090E020E030E0FA013183208303
S1130400089594E09BB995E09A95F1F7000088234C
S11304100CF45B9A00005A9895E09A95F1F7000065
S113042098E09BB995E09A95F1F7000086FD5A9AF9
S113043000005B9895E09A95F1F7000094E09BB971
S113044095E09A95F1F7000085FD5B9A00005A98B3
S113045095E09A95F1F7000098E09BB995E09A959C
S1130460F1F7000084FD5A9A00005B9895E09A9594
S1130470F1F7000094E09BB995E09A95F1F700003C
S113048083FD5B9A00005A9895E09A95F1F7000075
S113049098E09BB995E09A95F1F7000082FD5A9A8D
S11304A000005B9895E09A95F1F7000094E09BB901
S11304B095E09A95F1F7000081FD5B9A00005A9847
S11304C095E09A95F1F7000098E09BB995E09A952C
S11304D0F1F7000080FD5A9A00005B9885E08A9548
S11304E0F1F70000089583EF8AB98CE08BB9089581
S11304F00F931F93CF93DF93DC01EF93FF93882730
S1130500E6E2F1E034E13A9541F02FEF19B12A9592
S1130510D1F309B10117D9F304C083955C9A5C98AF
S113052002C509B1019309B1019309B1019309B15C
S1130530019309B1019309B1019309B1019309B17F
S1130540019309B1019309B1019309B1019309B16F
S1130550019309B1019309B1019309B1019309B15F
S1130560019309B1019309B1019309B1019309B14F
S1130F20019309B10193FF91EF9181118AC08091DE
S1130F3026018C70843009F496C021E030E0F90178
S1130F40EA5DFE4F90819C70943049F02F5F3F4FD3
S1130F50213882E0380799F76FEF7FEF8BC0213893
S1130F6082E0380709F479C01C92F901EA5DFE4F6A
S1130F7040814C70213882E038070CF065C050E89D
S1130F80C0E0D0E010E0F901EA5DFE4F90819C7072
S1130F902C98941729F1892F80954823E9F041175B
S1130FA029F14C3011F42C9A2C98992331F0FD013D
S1130FB0EC0FFD1F8081852B8083569579F4219653
S1130FC0C617D70708F04CC0FD01EC0FFD1F1082B7
S1130FD0142F492F50E804C0492F02C0142F492F61
S1130FE02F5F3F4F213882E0380769F6BE011C1697
S1130FF01D060CF03FC061507109CB018370992725
S1131000892B29F5FD01CA0FDB1F90E02D91922752
S1131010CA17DB07D9F791111DC01616170654F528
S113102020E030E0938180818383908392814181A9
S1131030428391832C5F3F4F34962617370794F3EE
S113104019C06FEF7FEF16C060E070E013C06EEF61
S11310507FEF10C06EEF7FEF0DC06FEF7FEF0AC020
S11310606DEF7FEF07C01C92409126014C7020E089
S113107030E085CFCB01DF91CF911F910F9108957F
S11310808F929F92AF92BF92CF92DF92EF92FF9294
S11310900F931F93CF93DF935C017B01042F9BB1CC
S11310A09C609BB99AB19C609AB98CE08BB998E02A
S11310B09BB925E02A95F1F700001BB8E5E0EA9515
S11310C0F1F700009BB9F5E0FA95F1F700001BB8C1
S11310D025E02A95F1F700009BB9E5E0EA95F1F7E0
S11310E000001BB8F5E0FA95F1F700009BB925E084
S11310F02A95F1F700001BB8E5E0EA95F1F7000046
S11311009BB9F5E0FA95F1F700008BB925E02A9533
S1131110F1F7000084E08BB9E50184E0A80EB11C6E
S1131120C12C4E0189916DD9F4018081C826AC1679
S1131130BD06B9F710E010161106FCF4C0E0D0E0CB
S1131140FE01EC7FFF273396CE0183709927E81BBD
S1131150F90BEE0DFF1DD4908D2D53D9CD2420977E
S113116041F0CE0187709927892B19F4F0EAFA959A
S1131170F1F72196C017D10719F78C2D42D984E0D5
S11311808BB925E02A95F1F700009CE09BB9E5E0D6
S1131190EA95F1F700008BB9F5E0FA95F1F7000054
S11311A01BB825E02A95F1F700008BB9E5E0EA9534
S11311B0F1F700001BB8F5E0FA95F1F700008BB9E0
S11311C025E02A95F1F700009BB98BB18C608BB9AF
S11311D08AB1837F8AB9DF91CF911F910F91FF90DC
S11311E0EF90DF90CF90BF90AF909F908F90089535
S11311F0FF920F931F93CF93DF93109225011092C8
S11312002401662309F442C0DC01EC01C60FD11DA0
S113121079E060E06894FF24F2F808E011E032C05D
S1131220582F2FEF250F9C91942360FF0EC030E0C0
S1131230F901EA5DFE4F00839923A1F0F901EA5D0B
S1131240FE4F8081846080830DC030E0F901EA5D47
S1131250FE4FF082992331F0F901EA5DFE4F80815F
S1131260886080836127469581E0850F7813D8CF05
S1131270785F1196AC17BD0729F46093240150934D
S1131280250104C058EF570F40E8CBCF8BB18C60D9
S11312908BB98AB18C608AB980912501869590E0DA
S11312A0E6E2F1E0FF93EF93382F44E058E0019138
S11312B05A9A5B9A00000000000000000000000041
S11312C0000000005A9800000000000000005B9835
S11312D00000000000005B9A0000000000005B9822
S11312E00000000000005B9A0000000000005B9812
S11312F00000000000005B9A0000000000005B9802
S11313000000000000005B9A0000000000000000E4
S113131000005A9A5B984BB90BB95A9801915BB982
S11313200BB95B9801913A95B1F75A9A0000000005
S1131330000000005B9A5B980000000000005A98CF
S11313400000000000005A9A0000000000005A98B3
S11313500000000000005A9A0000000000005B9AA0
S1131360EF91FF918BB18C608BB98AB1837F8AB97D
S1131370DF91CF911F910F91FF9008950F931F93C9
S1131380CF93DF9300D000D0CDB7DEB7F901F59548
S1131390E795F595E795E9834A836B838C83422F20
S11313A0B801CE0101966CDE0F900F900F900F9054
S11313B0DF91CF911F910F9108956F927F928F9239
S11313C09F92AF92BF92CF92DF92EF92FF920F93D0
S11313D01F93CF93DF93CDB7DEB74901ADB6BEB649
S11313E0690125E0C20ED11C340134E0630E711C86
S11313F0EDB7FEB7EC19FD090FB6F894FEBF0FBEAA
S1131400EDBF2DB73EB72F5F3F4F7901940135955E
S11314102795359527952183F7014183628383833B
S11314208114910431F0A401B801C70104960E940B
S113143032141614170474F4F70124E0820E911C7C
S11314409701280D391D80E091918927E217F30750
S1131450D9F703C0812C912C80E0F701E80DF91D28
S113146080836C2DC701C4DE0FB6F894BEBE0FBED8
S1131470ADBEDF91CF911F910F91FF90EF90DF9060
S1131480CF90BF90AF909F908F907F906F90089572
S11314900F931F93CF93DF9300D000D0CDB7DEB767
S11314A009831A832B833C838E010F5F1F4F24E033
S11314B030E083DF0F900F900F900F90DF91CF916A
S11314C01F910F9108950F931F93CF93DF93CDB77F
S11314D0DEB76E970FB6F894DEBF0FBECDBF609136
S11314E02201662391F0811103C007E911E002C0D3
S11314F00FE512E028EC30E040E48CE03FDF6EE1E1
S113150070E0CE0101960E94780280E06E960FB6DC
S1131510F894DEBF0FBECDBFDF91CF911F910F9125
S11315200895AF92BF92DF92EF92FF920F931F93B1
S1131530CF93DF93CDB7DEB7EC970FB6F894DEBF49
S11315400FBECDBF7C0180912301823009F4B2C06B
S113155028F4882349F08130A9F0E7C08530C1F12F
S1131560863009F492C0E1C000E010E020E030E0F1
S113157040E060E283E021DF81E0809323018093F7
S11315801B01D3C000E010E020E030E040E460E65E
S113159081E013DF6EE170E0CE0101960E947802D3
S11315A0EFE3FFE13197F1F700C00000029651F438
S11315B08D8180FF07C085E08093230110921A017A
S11315C01092190181E080931B0110921801ADC0A3
S11315D0E12CF12CAA24A394B12CB5010E2C02C049
S11315E0660F771F0A94E2F7262F2064D22E00E0BC
S11315F010E020E030E040E46D2D81E0DEDE6EE1BD
S113160070E0CE014F960E947802029679F48FE33F
S11316109FE10197F1F700C000008CA190E0982FA2
S113162088272BA1822B82FDD09222019FEFE91AF9
S1131630F90AE5E0EE16F10481F68091220188238F
S113164089F08091190190911A018D3D910554F012
S113165080E039DF86E08093230110921A01109212
S1131660190163C08091190190911A010196909318
S11316701A0180931901813991401CF082E0809312
S1131680230181E080931B0150C080911901909146
S11316901A01019690931A0180931901813991409E
S11316A02CF081E010DF82E08093230181E08093BD
S11316B01B013BC001E010E020E030E040E460E6C4
S11316C089E0E6DE6EE170E0CE0101960E947802C8
S11316D01816190664F0809118018F5F8093180121
S11316E0853630F181E08093230180E024C010929C
S11316F018014097FCF08D85F70184838E858583DE
S11317008B858695805882838C85869580588383C3
S11317108A85809590E0982F882729852095822BAB
S11317209183808381E080931B0180911B0103C01E
S113173080E001C080E0EC960FB6F894DEBF0FBEE7
S1131740CDBFDF91CF911F910F91FF90EF90DF906C
S1131750BF90AF90089584B7877F84BF0FB6F89485
S1131760A895809160008861809360001092600069
S11317700FBE90E080E80FB6F894809361009093D8
S113178061000FBE0E947302EDC50895E4DF7894F2
S113179080E091E0F0D10E940B14FACF08950895EF
S11317A080E091E0D4D1E2EEF0E080818460808337
S11317B0089580E091E082C0089580910E01909197
S11317C00F01009729F0019790930F0180930E0168
S11317D008950F931F93CF93DF93E90180E191E084
S11317E0A0DE882309F463C0809110019091110157
S11317F082FF02C021E02D8381FF03C02D8122607E
S11318002D8392FF03C02D8124602D8391FF03C09B
S11318102D8128602D8383FF03C02D8120612D83BA
S1131820807F9927929582958F7089279F70892749
S11318308530D9F03CF4823081F0843099F08130E5
S113184019F516C08830D1F01CF4863041F01CC064
S1131850893089F08A30A9F017C01A8217C080E253
S11318608A8314C080E48A8311C080E68A830EC010
S113187081E88A830BC080EA8A8308C080EC8A836B
S113188005C080EE8A8302C080E88A83E0E1F1E04B
S113189084818058888385818058898383818C835F
S11318A082818B8386E090E0F8019183808380E0DD
S11318B0DF91CF911F910F91089508953F924F9218
S11318C05F926F927F928F929F92AF92BF92CF92CC
S11318D0DF92EF92FF920F931F93CF93DF9300D089
S11318E01F92CDB7DEB76C01EDB6FEB68091E8006D
S11318F083FF13C1F601808190E02091B003309101
S1131900B1032817390709F008C18091AD0383306A
S113191009F4A0C030F4813071F0823009F4E2C0DF
S1131920FCC08A3009F4C2C08B3009F4ABC08930E2
S113193009F0F3C051C08091AC03813A09F0EDC0C5
S1131940ADB6BEB61A821982ECEAF3E08281138145
S11319508B83F6018085482F50E08DB79EB7841B9A
S1131960950B0FB6F8949EBF0FBE8DBFEDB7FEB7B3
S113197031964F0160E070E0CF017DD74FEF410F0A
S11319808E010F5F1F4F9401BE016D5F7F4FC60133
S113199020DFF60186819781009721F0408550E091
S11319A0B40160D71092E900E8EEF0E08081877F0F
S11319B080838B8181118093F10069817A81C401D4
S11319C0F4D1E8EEF0E080818B7780830FB6F89451
S11319D0BEBE0FBEADBEA1C08091AC03813209F082
S11319E09CC06DB67EB6ECEAF3E0068117815280A6
S11319F043808DB79EB7801B910B0FB6F8949EBFA2
S1131A000FBE8DBFEDB7FEB731964F010F2EF8EE26
S1131A10AF2EB12CF02DF5018081877F8083B80132
S1131A20C40147D2F50180818E77808321E0511073
S1131A3001C020E030E0021B130B280D391D4FEFCD
S1131A40440D652DC60139DF0FB6F8947EBE0FBE76
S1131A506DBE63C08091AC03813A09F05EC0E8EECC
S1131A60F0E08081877F8083808180FFFDCFF60155
S1131A7081858093F100E8EEF0E080818E778083A9
S1131A80CCD34BC08091AC03813209F046C0E8EE60
S1131A90F0E08081877F8083C0D39091AE0381E0A2
S1131AA0911101C080E0F601818737C08091AC03B9
S1131AB0813299F5E8EEF0E08081877F8083ADD3B1
S1131AC08091AE039091AF0388270024880F991F5B
S1131AD0001C880F991F001C892F902DF6019587F3
S1131AE084871BC08091AC03813AB9F4E8EEF0E03E
S1131AF08081877F8083808180FFFDCFF60184858C
S1131B00958596958795969587958093F100E8EE4F
S1131B10F0E080818E77808380D30FB6F894FEBE88
S1131B200FBEEDBE0F900F900F90DF91CF911F91DC
S1131B300F91FF90EF90DF90CF90BF90AF909F9068
S1131B408F907F906F905F904F903F900895FC012D
S1131B50399627E0DF011D922A95E9F721E0FC017F
S1131B60218724EF31E03587248723E0248361E053
S1131B70019604C308955F926F927F928F929F9211
S1131B80AF92BF92CF92DF92EF92FF920F931F9387
S1131B90CF93DF9300D01F92CDB7DEB77C01ADB6F3
S1131BA0BEB68091AB03843009F08AC08091E40012
S1131BB09091E500F701228533852817390709F448
S1131BC07FC081818F708093E9008091E80085FF58
S1131BD077C08DB69EB6408550E08DB79EB7841B06
S1131BE0950B0FB6F8949EBF0FBE8DBFEDB7FEB731
S1131BF031966F011B821A82198260E070E0CF0176
S1131C003AD68E010F5F1F4F960140E0BE016D5F13
S1131C107F4FC701DEDD582EF70184859585892B1A
S1131C2041F081E026853785232B09F080E0782E6A
S1131C3001C0712CF701068117810115110589F086
S1131C4049815A81B801C60100D666246394892B60
S1131C5009F4612CF701408550E0B601C80102D6B1
S1131C6001C0612C89819A81892BF1F0511004C043
S1131C70611002C070FE18C0F701848595859787AE
S1131C80868781818F708093E9008B818111809395
S1131C90F10069817A8140E050E0C60129D0E8EE84
S1131CA0F0E080818E7780838091E4009091E5005C
S1131CB0F701938782870FB6F8949EBE0FBE8DBE40
S1131CC00FB6F894BEBE0FBEADBE0F900F900F902E
S1131CD0DF91CF911F910F91FF90EF90DF90CF9004
S1131CE0BF90AF909F908F907F906F905F9008957A
S1131CF08F929F92AF92BF92CF92DF92EF92FF9218
S1131D000F931F93CF93DF938C01EB015A01A9D258
S1131D1081113EC0A114B10439F0F5018081918193
S1131D20C81BD90B080F191F209789F1E12CF12C3E
S1131D300F2EF8EE8F2E912CF02D0F2EF1EFCF2ECB
S1131D40D12CF02DF401808185FD14C080818E7723
S1131D50808361D5A114B10449F0F501808191819A
S1131D60E80EF91EF182E08285E012C07AD288235F
S1131D7051F00EC0F80181918F01F6018083219703
S1131D80FFEFEF1AFF0A2097E9F680E001C080E038
S1131D90DF91CF911F910F91FF90EF90DF90CF9043
S1131DA0BF90AF909F908F900895CF92DF92FF9253
S1131DB00F931F93CF93DF932091B2033091B3031A
S1131DC02617370758F06115710539F4E8EEF0E08D
S1131DD020812E7720839B0101C09B01A82FB92F5E
S1131DE010E0E8EEF0E063EF70E042EF50E00F2E19
S1131DF0F1EFCF2ED12CF02D01E0F12C30C08091E9
S1131E00AB03882309F442C0853009F441C08081C2
S1131E1083FD40C0808182FD32C0808180FF1FC06D
S1131E20EB011881EA01888190E0912B211531059D
S1131E3079F08830910560F41D91E60118832150F2
S1131E40310901962115310519F088309105A1F762
S1131E50102F089709F01F2D80818E77808321151C
S1131E60310569F61111CBCF0AC08091AB038823E9
S1131E7099F0853099F0808183FF03C011C0E8EEAA
S1131E80F0E0808182FFF1CF80E00BC082E009C0E6
S1131E9083E007C081E005C082E003C083E001C0A5
S1131EA081E0DF91CF911F910F91FF90DF90CF9050
S1131EB00895EF92FF921F93CF93DF9361157105FD
S1131EC051F5E8EEF0E080818B77808345C0809106
S1131ED0AB03882309F447C0853009F446C08081E8
S1131EE083FD45C0808182FFF2CF4DC0EA01888125
S1131EF08D936150710941F0E9011881E7018881EE
S1131F0090E0912B892B91F780818B7780836115E9
S1131F10710571F421C0A82FB92FE8EEF0E023EF8A
S1131F2030E00F2EF2EFEF2EF12CF02D41EF50E0C8
S1131F308091AB038823E9F08530E9F0808183FD4B
S1131F401CC0808182FD1FC0C2CF8091AB03882357
S1131F50B1F0853019F415C0E8EEF0E0808180FF1F
S1131F60F4CF80E01AC082E018C083E016C081E09C
S1131F7014C082E012C083E010C081E00EC082E091
S1131F800CC083E00AC0E9011881E701888190E070
S1131F90912B892B09F0AACFB7CFDF91CF911F9155
S1131FA0FF90EF900895CF92DF92FF920F931F93CB
S1131FB0CF93DF932091B2033091B30326173707F1
S1131FC058F06115710539F4E8EEF0E020812E77C0
S1131FD020839B0101C09B01E82FF92F10E0A8EE9C
S1131FE0B0E063EF70E042EF50E00F2EF1EFCF2E40
S1131FF0D12CF02D01E0F12C31C08091AB0388236A
S113200009F443C0853009F442C08C9183FD41C07A
S11320108C9182FD33C08C9180FF20C0EB0118812C
S1132020EA01888190E0912B2115310581F08830F7
S1132030910568F41491E601188331962150310911
S113204001962115310519F08830910599F7102F63
S1132050089709F01F2D8C918E778C9321153105EB
S113206061F61111CACF0AC08091AB03882399F09D
S1132070853099F0808183FF03C011C0E8EEF0E061
S1132080808182FFF1CF80E00BC082E009C083E051
S113209007C081E005C082E003C083E001C081E0A5
S11320A0DF91CF911F910F91FF90DF90CF90089512
S11320B08F929F92BF92CF92DF92EF92FF920F93F3
S11320C01F93CF93DF93873070F126C0292F2F7091
S11320D0E7012883891731F0E80178812081E40140
S11320E0588103C0242F762F5B2D21FF12C03C9111
S11320F03E7F3C9330813D7F30833C9131603C9303
S1132100E80178832083E4015883E60128812223AF
S113211044F49F5F9730D1F68F708093E90081E09B
S113212021C080E01FC0982F9F709093E900982FE2
S1132130242F762F50E0ABEEB0E0EDEEF0E00CEEA5
S113214010E00F2EF0EF8F2E912CF02D0F2EFEEEBF
S1132150CF2ED12CF02D0F2EF9EEEF2EF12CF02DE9
S1132160B12CC3CFDF91CF911F910F91FF90EF90CE
S1132170DF90CF90BF909F908F900895EF92FF9241
S11321800F931F93CF93DF936623E9F1062FC82F94
S1132190D92F10E00F2EF6E0FF2EF02D6894EE24D8
S11321A0E1F85881552349F19C81E981FA816B81D9
S11321B0852F8F70873048F5923010F44E2D01C072
S11321C04F2DE930F10550F028E030E090E09F5FBA
S11321D0220F331F2E173F07D0F301C090E09295D2
S11321E0907F492B90E4699FB0011124551F552716
S11321F0551F652B5DDF882349F01F5F259601136A
S1132200D0CF81E003C081E001C080E0DF91CF91B5
S11322101F910F91FF90EF9008958091AC03882354
S113222044F0E8EEF0E014C08091AB03811103C0E8
S11322300895E8EEF0E0808182FFF6CFE8EEF0E06A
S113224080818B77808308958091AB03882341F04C
S1132250808180FFF9CFE8EEF0E080818E77808383
S113226008950F931F93CF93DF932091E40030914F
S1132270E50065E6ACEEB0E0E8EEF0E00BEE10E071
S113228044EE50E001C09C019C91892F817090FD27
S11322901DC020C08091AB03882381F0853081F07C
S11322A0E801888185FD0EC0EA018881998128179B
S11322B0390751F3615039F784E00FC082E00DC053
S11322C083E00BC081E009C080E007C0808180FF0B
S11322D0E1CFFACF908192FFDDCFDF91CF911F91B3
S11322E00F9108950F931F93CF93DF934CD053D046
S11322F0C8EDD0E088818F7788838881806888835F
S113230088818F7D888319BC1092AB031092A70338
S11323101092A9031092A80300EE10E0F801808146
S11323208B7F808388818160888342E060E080E0E5
S1132330BFDEE1EEF0E080818E7F8083E2EEF0E0AC
S1132340808181608083808188608083F8018081BE
S11323508E7F8083888180618883DF91CF911F91F4
S11323600F910895E8EDF0E080818F7E8083E7EDA2
S1132370F0E080818160808384E082BF81E080938B
S1132380AA03B0CF0895E8EDF0E080818E7F8083CA
S11323901092E20008951092DA001092E10008957C
S11323A01F920F920FB60F9211242F933F934F93C6
S11323B05F936F937F938F939F93AF93BF93EF93A9
S11323C0FF938091E10082FF0AC08091E20082FFC6
S11323D006C0E1EEF0E080818B7F8083EED98091AE
S11323E0DA0080FF1DC08091D80080FF19C0EAED9B
S11323F0F0E080818E7F80838091D90080FF0CC0C3
S113240080E189BD82E189BD09B400FEFDCF81E090
S11324108093AB03C3D904C019BC1092AB03BFD9DA
S11324208091E10080FF16C08091E20080FF12C01D
S1132430E2EEF0E080818E7F808380818061808302
S1132440E8EDF0E080818062808319BC85E08093B0
S1132450AB03E0D18091E10084FF2FC08091E200C2
S113246084FF2BC080E189BD82E189BD09B400FEEF
S1132470FDCFE8EDF0E080818F7D8083E1EEF0E038
S113248080818F7E8083E2EEF0E080818F7E808386
S11324908081816080838091A703882321F084E078
S11324A08093AB0309C08091E300882314F081E09A
S11324B001C083E08093AB03ADD18091E10083FF41
S11324C01EC08091E20083FF1AC0E1EEF0E080813B
S11324D0877F808382E08093AB031092A70380817F
S11324E08E7F8083E2EEF0E080818E7F8083808126
S11324F08061808342E060E080E0DADD8BD1FF918F
S1132500EF91BF91AF919F918F917F916F915F9167
S11325104F913F912F910F900FBE0F901F901895E0
S11325200F931F93CF93DF93CDB7DEB7AA970FB660
S1132530F894DEBF0FBECDBFECEAF3E024EB33E04A
S1132540A1EFB0E08C9181932E173F07D9F731D9D1
S11325508091E80083FF39C1ECEAF3E09081818146
S1132560853009F47FC030F48130C9F168F08330DC
S1132570B1F12BC1883009F4F2C0893009F4FFC0ED
S1132580863009F022C191C0903821F0923809F0C8
S11325901CC108C08091A8039091A903992389F0D4
S11325A082600FC08091B0038F70873008F00DC136
S11325B0E9EEF0E080838091EB0085FB882780F9C9
S11325C01082E8EEF0E09081977F9083A1EFB0E075
S11325D08C931C9280818E7780831FDEF6C09923B2
S11325E009F402C1923009F0F0C003C191E08330D4
S11325F009F090E09093A9032CC08091B0038F70F0
S11326009FEF980F963008F0E0C08093E900909116
S1132610EB0090FF1EC09091AD03933031F4EBEECC
S1132620F0E080818062808314C0EBEEF0E0908162
S11326309061908321E030E0A90102C0440F551F4E
S11326408A95E2F7AAEEB0E04C931C9280818860F0
S113265080831092E900E8EEF0E08081877F808338
S1132660DCDDB3C09111B1C01091AE031F77E3EE6E
S1132670F0E080818078812B8083E8EEF0E0808137
S1132680877F8083CADDE8EEF0E0808180FFFDCFA4
S1132690E3EEF0E0808180688083111102C082E063
S11326A001C083E08093AB0390C09058923008F04F
S11326B08CC08091AE039091AF038C3D53E095079D
S11326C099F583E08A838AE289835FB7F894DE010F
S11326D0139620E03EE041E2E32FF0E04093570000
S11326E0849120FF03C082958F703F5F8F708A3082
S11326F018F090E0C79602C090E0C0968D939D9329
S11327002F5F243149F75FBF08EE10E0F8018081A4
S1132710877F80836AE270E0CE01019646DBF80190
S113272080818B77808351C06091B0037091B10335
S1132730AE014F5F5F4F0E94B201BC01892B09F4C7
S113274044C008EE10E0F8019081977F908389815E
S11327509A8129DCF80180818B77808336C0903898
S1132760A1F5E8EEF0E08081877F80838091A70364
S11327708093F10080818E7780834FDD26C0911194
S113278024C08091AE039091AF0399270297ECF493
S1132790E8EEF0E08081877F80838091AE038093B0
S11327A0A7033BDD8091A703882321F084E0809375
S11327B0AB0309C08091E300882314F081E001C0D9
S11327C084E08093AB030E94D00B8091E80083FFE8
S11327D016C0E8EEF0E08081877F8083EBEEF0E0C6
S11327E08081806280830BC09091AE03913069F741
S11327F0FDCE8091AE03882309F4FFCE2ACFAA969A
S11328000FB6F894DEBF0FBECDBFDF91CF911F91FD
S11328100F9108950895CF938091AB03882399F085
S1132820C091E900CF708091EC00982F917080FDE9
S113283090E8C92B1092E9008091E80083FD70DED6
S1132840CF70C093E900CF910895FB01DC0104C06F
S11328508D910190801921F441505040C8F7881B94
S1132860990B0895FB01DC0102C001900D924150C7
S11328705040D8F70895DC0101C06D934150504099
S10B2880E0F70895F894FFCF7E
S11328880081080000011C0106000000000000008F
S9030000FC
